{
	"contracts/10_Coin.sol": {
		"Coin": {
			"abi": [
				{
					"inputs": [],
					"stateMutability": "nonpayable",
					"type": "constructor"
				},
				{
					"inputs": [
						{
							"internalType": "uint256",
							"name": "requested",
							"type": "uint256"
						},
						{
							"internalType": "uint256",
							"name": "available",
							"type": "uint256"
						}
					],
					"name": "InsuficientBalance",
					"type": "error"
				},
				{
					"anonymous": false,
					"inputs": [
						{
							"indexed": false,
							"internalType": "address",
							"name": "from",
							"type": "address"
						},
						{
							"indexed": false,
							"internalType": "address",
							"name": "to",
							"type": "address"
						},
						{
							"indexed": false,
							"internalType": "uint256",
							"name": "amount",
							"type": "uint256"
						}
					],
					"name": "Sent",
					"type": "event"
				},
				{
					"inputs": [
						{
							"internalType": "address",
							"name": "",
							"type": "address"
						}
					],
					"name": "balances",
					"outputs": [
						{
							"internalType": "uint256",
							"name": "",
							"type": "uint256"
						}
					],
					"stateMutability": "view",
					"type": "function"
				},
				{
					"inputs": [],
					"name": "getMinter",
					"outputs": [
						{
							"internalType": "address",
							"name": "",
							"type": "address"
						}
					],
					"stateMutability": "view",
					"type": "function"
				},
				{
					"inputs": [
						{
							"internalType": "address",
							"name": "receiver",
							"type": "address"
						},
						{
							"internalType": "uint256",
							"name": "amount",
							"type": "uint256"
						}
					],
					"name": "mint",
					"outputs": [],
					"stateMutability": "nonpayable",
					"type": "function"
				},
				{
					"inputs": [],
					"name": "minter",
					"outputs": [
						{
							"internalType": "address",
							"name": "",
							"type": "address"
						}
					],
					"stateMutability": "view",
					"type": "function"
				},
				{
					"inputs": [
						{
							"internalType": "address",
							"name": "receiver",
							"type": "address"
						},
						{
							"internalType": "uint256",
							"name": "amount",
							"type": "uint256"
						}
					],
					"name": "send",
					"outputs": [],
					"stateMutability": "nonpayable",
					"type": "function"
				}
			],
			"devdoc": {
				"kind": "dev",
				"methods": {},
				"version": 1
			},
			"evm": {
				"assembly": "    /* \"contracts/10_Coin.sol\":176:1064  contract Coin{... */\n  mstore(0x40, 0x80)\n    /* \"contracts/10_Coin.sol\":341:390  constructor(){... */\n  callvalue\n  dup1\n  iszero\n  tag_1\n  jumpi\n  0x00\n  dup1\n  revert\ntag_1:\n  pop\n    /* \"contracts/10_Coin.sol\":373:383  msg.sender */\n  caller\n    /* \"contracts/10_Coin.sol\":364:370  minter */\n  0x00\n  dup1\n    /* \"contracts/10_Coin.sol\":364:383  minter = msg.sender */\n  0x0100\n  exp\n  dup2\n  sload\n  dup2\n  0xffffffffffffffffffffffffffffffffffffffff\n  mul\n  not\n  and\n  swap1\n  dup4\n  0xffffffffffffffffffffffffffffffffffffffff\n  and\n  mul\n  or\n  swap1\n  sstore\n  pop\n    /* \"contracts/10_Coin.sol\":176:1064  contract Coin{... */\n  dataSize(sub_0)\n  dup1\n  dataOffset(sub_0)\n  0x00\n  codecopy\n  0x00\n  return\nstop\n\nsub_0: assembly {\n        /* \"contracts/10_Coin.sol\":176:1064  contract Coin{... */\n      mstore(0x40, 0x80)\n      callvalue\n      dup1\n      iszero\n      tag_1\n      jumpi\n      0x00\n      dup1\n      revert\n    tag_1:\n      pop\n      jumpi(tag_2, lt(calldatasize, 0x04))\n      shr(0xe0, calldataload(0x00))\n      dup1\n      0x07546172\n      eq\n      tag_3\n      jumpi\n      dup1\n      0x27e235e3\n      eq\n      tag_4\n      jumpi\n      dup1\n      0x40c10f19\n      eq\n      tag_5\n      jumpi\n      dup1\n      0xd0679d34\n      eq\n      tag_6\n      jumpi\n      dup1\n      0xf3667517\n      eq\n      tag_7\n      jumpi\n    tag_2:\n      0x00\n      dup1\n      revert\n        /* \"contracts/10_Coin.sol\":195:216  address public minter */\n    tag_3:\n      tag_8\n      tag_9\n      jump\t// in\n    tag_8:\n      mload(0x40)\n      tag_10\n      swap2\n      swap1\n      tag_11\n      jump\t// in\n    tag_10:\n      mload(0x40)\n      dup1\n      swap2\n      sub\n      swap1\n      return\n        /* \"contracts/10_Coin.sol\":223:264  mapping (address => uint) public balances */\n    tag_4:\n      tag_12\n      0x04\n      dup1\n      calldatasize\n      sub\n      dup2\n      add\n      swap1\n      tag_13\n      swap2\n      swap1\n      tag_14\n      jump\t// in\n    tag_13:\n      tag_15\n      jump\t// in\n    tag_12:\n      mload(0x40)\n      tag_16\n      swap2\n      swap1\n      tag_17\n      jump\t// in\n    tag_16:\n      mload(0x40)\n      dup1\n      swap2\n      sub\n      swap1\n      return\n        /* \"contracts/10_Coin.sol\":481:616  function mint(address receiver, uint amount) public{... */\n    tag_5:\n      tag_18\n      0x04\n      dup1\n      calldatasize\n      sub\n      dup2\n      add\n      swap1\n      tag_19\n      swap2\n      swap1\n      tag_20\n      jump\t// in\n    tag_19:\n      tag_21\n      jump\t// in\n    tag_18:\n      stop\n        /* \"contracts/10_Coin.sol\":685:1061  function send(address receiver, uint amount) public{... */\n    tag_6:\n      tag_22\n      0x04\n      dup1\n      calldatasize\n      sub\n      dup2\n      add\n      swap1\n      tag_23\n      swap2\n      swap1\n      tag_20\n      jump\t// in\n    tag_23:\n      tag_24\n      jump\t// in\n    tag_22:\n      stop\n        /* \"contracts/10_Coin.sol\":396:475  function getMinter() public view returns(address){... */\n    tag_7:\n      tag_25\n      tag_26\n      jump\t// in\n    tag_25:\n      mload(0x40)\n      tag_27\n      swap2\n      swap1\n      tag_11\n      jump\t// in\n    tag_27:\n      mload(0x40)\n      dup1\n      swap2\n      sub\n      swap1\n      return\n        /* \"contracts/10_Coin.sol\":195:216  address public minter */\n    tag_9:\n      0x00\n      dup1\n      sload\n      swap1\n      0x0100\n      exp\n      swap1\n      div\n      0xffffffffffffffffffffffffffffffffffffffff\n      and\n      dup2\n      jump\t// out\n        /* \"contracts/10_Coin.sol\":223:264  mapping (address => uint) public balances */\n    tag_15:\n      mstore(0x20, 0x01)\n      dup1\n      0x00\n      mstore\n      keccak256(0x00, 0x40)\n      0x00\n      swap2\n      pop\n      swap1\n      pop\n      sload\n      dup2\n      jump\t// out\n        /* \"contracts/10_Coin.sol\":481:616  function mint(address receiver, uint amount) public{... */\n    tag_21:\n        /* \"contracts/10_Coin.sol\":564:570  minter */\n      0x00\n      dup1\n      sload\n      swap1\n      0x0100\n      exp\n      swap1\n      div\n      0xffffffffffffffffffffffffffffffffffffffff\n      and\n        /* \"contracts/10_Coin.sol\":550:570  msg.sender == minter */\n      0xffffffffffffffffffffffffffffffffffffffff\n      and\n        /* \"contracts/10_Coin.sol\":550:560  msg.sender */\n      caller\n        /* \"contracts/10_Coin.sol\":550:570  msg.sender == minter */\n      0xffffffffffffffffffffffffffffffffffffffff\n      and\n      eq\n        /* \"contracts/10_Coin.sol\":542:571  require(msg.sender == minter) */\n      tag_29\n      jumpi\n      0x00\n      dup1\n      revert\n    tag_29:\n        /* \"contracts/10_Coin.sol\":603:609  amount */\n      dup1\n        /* \"contracts/10_Coin.sol\":581:589  balances */\n      0x01\n        /* \"contracts/10_Coin.sol\":581:599  balances[receiver] */\n      0x00\n        /* \"contracts/10_Coin.sol\":590:598  receiver */\n      dup5\n        /* \"contracts/10_Coin.sol\":581:599  balances[receiver] */\n      0xffffffffffffffffffffffffffffffffffffffff\n      and\n      0xffffffffffffffffffffffffffffffffffffffff\n      and\n      dup2\n      mstore\n      0x20\n      add\n      swap1\n      dup2\n      mstore\n      0x20\n      add\n      0x00\n      keccak256\n      0x00\n        /* \"contracts/10_Coin.sol\":581:609  balances[receiver] += amount */\n      dup3\n      dup3\n      sload\n      tag_30\n      swap2\n      swap1\n      tag_31\n      jump\t// in\n    tag_30:\n      swap3\n      pop\n      pop\n      dup2\n      swap1\n      sstore\n      pop\n        /* \"contracts/10_Coin.sol\":481:616  function mint(address receiver, uint amount) public{... */\n      pop\n      pop\n      jump\t// out\n        /* \"contracts/10_Coin.sol\":685:1061  function send(address receiver, uint amount) public{... */\n    tag_24:\n        /* \"contracts/10_Coin.sol\":758:766  balances */\n      0x01\n        /* \"contracts/10_Coin.sol\":758:778  balances[msg.sender] */\n      0x00\n        /* \"contracts/10_Coin.sol\":767:777  msg.sender */\n      caller\n        /* \"contracts/10_Coin.sol\":758:778  balances[msg.sender] */\n      0xffffffffffffffffffffffffffffffffffffffff\n      and\n      0xffffffffffffffffffffffffffffffffffffffff\n      and\n      dup2\n      mstore\n      0x20\n      add\n      swap1\n      dup2\n      mstore\n      0x20\n      add\n      0x00\n      keccak256\n      sload\n        /* \"contracts/10_Coin.sol\":749:755  amount */\n      dup2\n        /* \"contracts/10_Coin.sol\":749:778  amount > balances[msg.sender] */\n      gt\n        /* \"contracts/10_Coin.sol\":746:917  if(amount > balances[msg.sender])... */\n      iszero\n      tag_33\n      jumpi\n        /* \"contracts/10_Coin.sol\":847:853  amount */\n      dup1\n        /* \"contracts/10_Coin.sol\":882:890  balances */\n      0x01\n        /* \"contracts/10_Coin.sol\":882:902  balances[msg.sender] */\n      0x00\n        /* \"contracts/10_Coin.sol\":891:901  msg.sender */\n      caller\n        /* \"contracts/10_Coin.sol\":882:902  balances[msg.sender] */\n      0xffffffffffffffffffffffffffffffffffffffff\n      and\n      0xffffffffffffffffffffffffffffffffffffffff\n      and\n      dup2\n      mstore\n      0x20\n      add\n      swap1\n      dup2\n      mstore\n      0x20\n      add\n      0x00\n      keccak256\n      sload\n        /* \"contracts/10_Coin.sol\":799:917  InsuficientBalance({... */\n      mload(0x40)\n      0xec0ae9cf00000000000000000000000000000000000000000000000000000000\n      dup2\n      mstore\n      0x04\n      add\n      tag_34\n      swap3\n      swap2\n      swap1\n      tag_35\n      jump\t// in\n    tag_34:\n      mload(0x40)\n      dup1\n      swap2\n      sub\n      swap1\n      revert\n        /* \"contracts/10_Coin.sol\":746:917  if(amount > balances[msg.sender])... */\n    tag_33:\n        /* \"contracts/10_Coin.sol\":960:966  amount */\n      dup1\n        /* \"contracts/10_Coin.sol\":936:944  balances */\n      0x01\n        /* \"contracts/10_Coin.sol\":936:956  balances[msg.sender] */\n      0x00\n        /* \"contracts/10_Coin.sol\":945:955  msg.sender */\n      caller\n        /* \"contracts/10_Coin.sol\":936:956  balances[msg.sender] */\n      0xffffffffffffffffffffffffffffffffffffffff\n      and\n      0xffffffffffffffffffffffffffffffffffffffff\n      and\n      dup2\n      mstore\n      0x20\n      add\n      swap1\n      dup2\n      mstore\n      0x20\n      add\n      0x00\n      keccak256\n      0x00\n        /* \"contracts/10_Coin.sol\":936:966  balances[msg.sender] -= amount */\n      dup3\n      dup3\n      sload\n      tag_36\n      swap2\n      swap1\n      tag_37\n      jump\t// in\n    tag_36:\n      swap3\n      pop\n      pop\n      dup2\n      swap1\n      sstore\n      pop\n        /* \"contracts/10_Coin.sol\":998:1004  amount */\n      dup1\n        /* \"contracts/10_Coin.sol\":976:984  balances */\n      0x01\n        /* \"contracts/10_Coin.sol\":976:994  balances[receiver] */\n      0x00\n        /* \"contracts/10_Coin.sol\":985:993  receiver */\n      dup5\n        /* \"contracts/10_Coin.sol\":976:994  balances[receiver] */\n      0xffffffffffffffffffffffffffffffffffffffff\n      and\n      0xffffffffffffffffffffffffffffffffffffffff\n      and\n      dup2\n      mstore\n      0x20\n      add\n      swap1\n      dup2\n      mstore\n      0x20\n      add\n      0x00\n      keccak256\n      0x00\n        /* \"contracts/10_Coin.sol\":976:1004  balances[receiver] += amount */\n      dup3\n      dup3\n      sload\n      tag_38\n      swap2\n      swap1\n      tag_31\n      jump\t// in\n    tag_38:\n      swap3\n      pop\n      pop\n      dup2\n      swap1\n      sstore\n      pop\n        /* \"contracts/10_Coin.sol\":1020:1054  Sent(msg.sender, receiver, amount) */\n      0x3990db2d31862302a685e8086b5755072a6e2b5b780af1ee81ece35ee3cd3345\n        /* \"contracts/10_Coin.sol\":1025:1035  msg.sender */\n      caller\n        /* \"contracts/10_Coin.sol\":1037:1045  receiver */\n      dup4\n        /* \"contracts/10_Coin.sol\":1047:1053  amount */\n      dup4\n        /* \"contracts/10_Coin.sol\":1020:1054  Sent(msg.sender, receiver, amount) */\n      mload(0x40)\n      tag_39\n      swap4\n      swap3\n      swap2\n      swap1\n      tag_40\n      jump\t// in\n    tag_39:\n      mload(0x40)\n      dup1\n      swap2\n      sub\n      swap1\n      log1\n        /* \"contracts/10_Coin.sol\":685:1061  function send(address receiver, uint amount) public{... */\n      pop\n      pop\n      jump\t// out\n        /* \"contracts/10_Coin.sol\":396:475  function getMinter() public view returns(address){... */\n    tag_26:\n        /* \"contracts/10_Coin.sol\":437:444  address */\n      0x00\n        /* \"contracts/10_Coin.sol\":462:468  minter */\n      dup1\n      0x00\n      swap1\n      sload\n      swap1\n      0x0100\n      exp\n      swap1\n      div\n      0xffffffffffffffffffffffffffffffffffffffff\n      and\n        /* \"contracts/10_Coin.sol\":455:468  return minter */\n      swap1\n      pop\n        /* \"contracts/10_Coin.sol\":396:475  function getMinter() public view returns(address){... */\n      swap1\n      jump\t// out\n        /* \"#utility.yul\":7:146   */\n    tag_43:\n        /* \"#utility.yul\":53:58   */\n      0x00\n        /* \"#utility.yul\":91:97   */\n      dup2\n        /* \"#utility.yul\":78:98   */\n      calldataload\n        /* \"#utility.yul\":69:98   */\n      swap1\n      pop\n        /* \"#utility.yul\":107:140   */\n      tag_45\n        /* \"#utility.yul\":134:139   */\n      dup2\n        /* \"#utility.yul\":107:140   */\n      tag_46\n      jump\t// in\n    tag_45:\n        /* \"#utility.yul\":7:146   */\n      swap3\n      swap2\n      pop\n      pop\n      jump\t// out\n        /* \"#utility.yul\":152:291   */\n    tag_47:\n        /* \"#utility.yul\":198:203   */\n      0x00\n        /* \"#utility.yul\":236:242   */\n      dup2\n        /* \"#utility.yul\":223:243   */\n      calldataload\n        /* \"#utility.yul\":214:243   */\n      swap1\n      pop\n        /* \"#utility.yul\":252:285   */\n      tag_49\n        /* \"#utility.yul\":279:284   */\n      dup2\n        /* \"#utility.yul\":252:285   */\n      tag_50\n      jump\t// in\n    tag_49:\n        /* \"#utility.yul\":152:291   */\n      swap3\n      swap2\n      pop\n      pop\n      jump\t// out\n        /* \"#utility.yul\":297:626   */\n    tag_14:\n        /* \"#utility.yul\":356:362   */\n      0x00\n        /* \"#utility.yul\":405:407   */\n      0x20\n        /* \"#utility.yul\":393:402   */\n      dup3\n        /* \"#utility.yul\":384:391   */\n      dup5\n        /* \"#utility.yul\":380:403   */\n      sub\n        /* \"#utility.yul\":376:408   */\n      slt\n        /* \"#utility.yul\":373:492   */\n      iszero\n      tag_52\n      jumpi\n        /* \"#utility.yul\":411:490   */\n      tag_53\n      tag_54\n      jump\t// in\n    tag_53:\n        /* \"#utility.yul\":373:492   */\n    tag_52:\n        /* \"#utility.yul\":531:532   */\n      0x00\n        /* \"#utility.yul\":556:609   */\n      tag_55\n        /* \"#utility.yul\":601:608   */\n      dup5\n        /* \"#utility.yul\":592:598   */\n      dup3\n        /* \"#utility.yul\":581:590   */\n      dup6\n        /* \"#utility.yul\":577:599   */\n      add\n        /* \"#utility.yul\":556:609   */\n      tag_43\n      jump\t// in\n    tag_55:\n        /* \"#utility.yul\":546:609   */\n      swap2\n      pop\n        /* \"#utility.yul\":502:619   */\n      pop\n        /* \"#utility.yul\":297:626   */\n      swap3\n      swap2\n      pop\n      pop\n      jump\t// out\n        /* \"#utility.yul\":632:1106   */\n    tag_20:\n        /* \"#utility.yul\":700:706   */\n      0x00\n        /* \"#utility.yul\":708:714   */\n      dup1\n        /* \"#utility.yul\":757:759   */\n      0x40\n        /* \"#utility.yul\":745:754   */\n      dup4\n        /* \"#utility.yul\":736:743   */\n      dup6\n        /* \"#utility.yul\":732:755   */\n      sub\n        /* \"#utility.yul\":728:760   */\n      slt\n        /* \"#utility.yul\":725:844   */\n      iszero\n      tag_57\n      jumpi\n        /* \"#utility.yul\":763:842   */\n      tag_58\n      tag_54\n      jump\t// in\n    tag_58:\n        /* \"#utility.yul\":725:844   */\n    tag_57:\n        /* \"#utility.yul\":883:884   */\n      0x00\n        /* \"#utility.yul\":908:961   */\n      tag_59\n        /* \"#utility.yul\":953:960   */\n      dup6\n        /* \"#utility.yul\":944:950   */\n      dup3\n        /* \"#utility.yul\":933:942   */\n      dup7\n        /* \"#utility.yul\":929:951   */\n      add\n        /* \"#utility.yul\":908:961   */\n      tag_43\n      jump\t// in\n    tag_59:\n        /* \"#utility.yul\":898:961   */\n      swap3\n      pop\n        /* \"#utility.yul\":854:971   */\n      pop\n        /* \"#utility.yul\":1010:1012   */\n      0x20\n        /* \"#utility.yul\":1036:1089   */\n      tag_60\n        /* \"#utility.yul\":1081:1088   */\n      dup6\n        /* \"#utility.yul\":1072:1078   */\n      dup3\n        /* \"#utility.yul\":1061:1070   */\n      dup7\n        /* \"#utility.yul\":1057:1079   */\n      add\n        /* \"#utility.yul\":1036:1089   */\n      tag_47\n      jump\t// in\n    tag_60:\n        /* \"#utility.yul\":1026:1089   */\n      swap2\n      pop\n        /* \"#utility.yul\":981:1099   */\n      pop\n        /* \"#utility.yul\":632:1106   */\n      swap3\n      pop\n      swap3\n      swap1\n      pop\n      jump\t// out\n        /* \"#utility.yul\":1112:1230   */\n    tag_61:\n        /* \"#utility.yul\":1199:1223   */\n      tag_63\n        /* \"#utility.yul\":1217:1222   */\n      dup2\n        /* \"#utility.yul\":1199:1223   */\n      tag_64\n      jump\t// in\n    tag_63:\n        /* \"#utility.yul\":1194:1197   */\n      dup3\n        /* \"#utility.yul\":1187:1224   */\n      mstore\n        /* \"#utility.yul\":1112:1230   */\n      pop\n      pop\n      jump\t// out\n        /* \"#utility.yul\":1236:1354   */\n    tag_65:\n        /* \"#utility.yul\":1323:1347   */\n      tag_67\n        /* \"#utility.yul\":1341:1346   */\n      dup2\n        /* \"#utility.yul\":1323:1347   */\n      tag_68\n      jump\t// in\n    tag_67:\n        /* \"#utility.yul\":1318:1321   */\n      dup3\n        /* \"#utility.yul\":1311:1348   */\n      mstore\n        /* \"#utility.yul\":1236:1354   */\n      pop\n      pop\n      jump\t// out\n        /* \"#utility.yul\":1360:1582   */\n    tag_11:\n        /* \"#utility.yul\":1453:1457   */\n      0x00\n        /* \"#utility.yul\":1491:1493   */\n      0x20\n        /* \"#utility.yul\":1480:1489   */\n      dup3\n        /* \"#utility.yul\":1476:1494   */\n      add\n        /* \"#utility.yul\":1468:1494   */\n      swap1\n      pop\n        /* \"#utility.yul\":1504:1575   */\n      tag_70\n        /* \"#utility.yul\":1572:1573   */\n      0x00\n        /* \"#utility.yul\":1561:1570   */\n      dup4\n        /* \"#utility.yul\":1557:1574   */\n      add\n        /* \"#utility.yul\":1548:1554   */\n      dup5\n        /* \"#utility.yul\":1504:1575   */\n      tag_61\n      jump\t// in\n    tag_70:\n        /* \"#utility.yul\":1360:1582   */\n      swap3\n      swap2\n      pop\n      pop\n      jump\t// out\n        /* \"#utility.yul\":1588:2030   */\n    tag_40:\n        /* \"#utility.yul\":1737:1741   */\n      0x00\n        /* \"#utility.yul\":1775:1777   */\n      0x60\n        /* \"#utility.yul\":1764:1773   */\n      dup3\n        /* \"#utility.yul\":1760:1778   */\n      add\n        /* \"#utility.yul\":1752:1778   */\n      swap1\n      pop\n        /* \"#utility.yul\":1788:1859   */\n      tag_72\n        /* \"#utility.yul\":1856:1857   */\n      0x00\n        /* \"#utility.yul\":1845:1854   */\n      dup4\n        /* \"#utility.yul\":1841:1858   */\n      add\n        /* \"#utility.yul\":1832:1838   */\n      dup7\n        /* \"#utility.yul\":1788:1859   */\n      tag_61\n      jump\t// in\n    tag_72:\n        /* \"#utility.yul\":1869:1941   */\n      tag_73\n        /* \"#utility.yul\":1937:1939   */\n      0x20\n        /* \"#utility.yul\":1926:1935   */\n      dup4\n        /* \"#utility.yul\":1922:1940   */\n      add\n        /* \"#utility.yul\":1913:1919   */\n      dup6\n        /* \"#utility.yul\":1869:1941   */\n      tag_61\n      jump\t// in\n    tag_73:\n        /* \"#utility.yul\":1951:2023   */\n      tag_74\n        /* \"#utility.yul\":2019:2021   */\n      0x40\n        /* \"#utility.yul\":2008:2017   */\n      dup4\n        /* \"#utility.yul\":2004:2022   */\n      add\n        /* \"#utility.yul\":1995:2001   */\n      dup5\n        /* \"#utility.yul\":1951:2023   */\n      tag_65\n      jump\t// in\n    tag_74:\n        /* \"#utility.yul\":1588:2030   */\n      swap5\n      swap4\n      pop\n      pop\n      pop\n      pop\n      jump\t// out\n        /* \"#utility.yul\":2036:2258   */\n    tag_17:\n        /* \"#utility.yul\":2129:2133   */\n      0x00\n        /* \"#utility.yul\":2167:2169   */\n      0x20\n        /* \"#utility.yul\":2156:2165   */\n      dup3\n        /* \"#utility.yul\":2152:2170   */\n      add\n        /* \"#utility.yul\":2144:2170   */\n      swap1\n      pop\n        /* \"#utility.yul\":2180:2251   */\n      tag_76\n        /* \"#utility.yul\":2248:2249   */\n      0x00\n        /* \"#utility.yul\":2237:2246   */\n      dup4\n        /* \"#utility.yul\":2233:2250   */\n      add\n        /* \"#utility.yul\":2224:2230   */\n      dup5\n        /* \"#utility.yul\":2180:2251   */\n      tag_65\n      jump\t// in\n    tag_76:\n        /* \"#utility.yul\":2036:2258   */\n      swap3\n      swap2\n      pop\n      pop\n      jump\t// out\n        /* \"#utility.yul\":2264:2596   */\n    tag_35:\n        /* \"#utility.yul\":2385:2389   */\n      0x00\n        /* \"#utility.yul\":2423:2425   */\n      0x40\n        /* \"#utility.yul\":2412:2421   */\n      dup3\n        /* \"#utility.yul\":2408:2426   */\n      add\n        /* \"#utility.yul\":2400:2426   */\n      swap1\n      pop\n        /* \"#utility.yul\":2436:2507   */\n      tag_78\n        /* \"#utility.yul\":2504:2505   */\n      0x00\n        /* \"#utility.yul\":2493:2502   */\n      dup4\n        /* \"#utility.yul\":2489:2506   */\n      add\n        /* \"#utility.yul\":2480:2486   */\n      dup6\n        /* \"#utility.yul\":2436:2507   */\n      tag_65\n      jump\t// in\n    tag_78:\n        /* \"#utility.yul\":2517:2589   */\n      tag_79\n        /* \"#utility.yul\":2585:2587   */\n      0x20\n        /* \"#utility.yul\":2574:2583   */\n      dup4\n        /* \"#utility.yul\":2570:2588   */\n      add\n        /* \"#utility.yul\":2561:2567   */\n      dup5\n        /* \"#utility.yul\":2517:2589   */\n      tag_65\n      jump\t// in\n    tag_79:\n        /* \"#utility.yul\":2264:2596   */\n      swap4\n      swap3\n      pop\n      pop\n      pop\n      jump\t// out\n        /* \"#utility.yul\":2683:2988   */\n    tag_31:\n        /* \"#utility.yul\":2723:2726   */\n      0x00\n        /* \"#utility.yul\":2742:2762   */\n      tag_83\n        /* \"#utility.yul\":2760:2761   */\n      dup3\n        /* \"#utility.yul\":2742:2762   */\n      tag_68\n      jump\t// in\n    tag_83:\n        /* \"#utility.yul\":2737:2762   */\n      swap2\n      pop\n        /* \"#utility.yul\":2776:2796   */\n      tag_84\n        /* \"#utility.yul\":2794:2795   */\n      dup4\n        /* \"#utility.yul\":2776:2796   */\n      tag_68\n      jump\t// in\n    tag_84:\n        /* \"#utility.yul\":2771:2796   */\n      swap3\n      pop\n        /* \"#utility.yul\":2930:2931   */\n      dup3\n        /* \"#utility.yul\":2862:2928   */\n      0xffffffffffffffffffffffffffffffffffffffffffffffffffffffffffffffff\n        /* \"#utility.yul\":2858:2932   */\n      sub\n        /* \"#utility.yul\":2855:2856   */\n      dup3\n        /* \"#utility.yul\":2852:2933   */\n      gt\n        /* \"#utility.yul\":2849:2956   */\n      iszero\n      tag_85\n      jumpi\n        /* \"#utility.yul\":2936:2954   */\n      tag_86\n      tag_87\n      jump\t// in\n    tag_86:\n        /* \"#utility.yul\":2849:2956   */\n    tag_85:\n        /* \"#utility.yul\":2980:2981   */\n      dup3\n        /* \"#utility.yul\":2977:2978   */\n      dup3\n        /* \"#utility.yul\":2973:2982   */\n      add\n        /* \"#utility.yul\":2966:2982   */\n      swap1\n      pop\n        /* \"#utility.yul\":2683:2988   */\n      swap3\n      swap2\n      pop\n      pop\n      jump\t// out\n        /* \"#utility.yul\":2994:3185   */\n    tag_37:\n        /* \"#utility.yul\":3034:3038   */\n      0x00\n        /* \"#utility.yul\":3054:3074   */\n      tag_89\n        /* \"#utility.yul\":3072:3073   */\n      dup3\n        /* \"#utility.yul\":3054:3074   */\n      tag_68\n      jump\t// in\n    tag_89:\n        /* \"#utility.yul\":3049:3074   */\n      swap2\n      pop\n        /* \"#utility.yul\":3088:3108   */\n      tag_90\n        /* \"#utility.yul\":3106:3107   */\n      dup4\n        /* \"#utility.yul\":3088:3108   */\n      tag_68\n      jump\t// in\n    tag_90:\n        /* \"#utility.yul\":3083:3108   */\n      swap3\n      pop\n        /* \"#utility.yul\":3127:3128   */\n      dup3\n        /* \"#utility.yul\":3124:3125   */\n      dup3\n        /* \"#utility.yul\":3121:3129   */\n      lt\n        /* \"#utility.yul\":3118:3152   */\n      iszero\n      tag_91\n      jumpi\n        /* \"#utility.yul\":3132:3150   */\n      tag_92\n      tag_87\n      jump\t// in\n    tag_92:\n        /* \"#utility.yul\":3118:3152   */\n    tag_91:\n        /* \"#utility.yul\":3177:3178   */\n      dup3\n        /* \"#utility.yul\":3174:3175   */\n      dup3\n        /* \"#utility.yul\":3170:3179   */\n      sub\n        /* \"#utility.yul\":3162:3179   */\n      swap1\n      pop\n        /* \"#utility.yul\":2994:3185   */\n      swap3\n      swap2\n      pop\n      pop\n      jump\t// out\n        /* \"#utility.yul\":3191:3287   */\n    tag_64:\n        /* \"#utility.yul\":3228:3235   */\n      0x00\n        /* \"#utility.yul\":3257:3281   */\n      tag_94\n        /* \"#utility.yul\":3275:3280   */\n      dup3\n        /* \"#utility.yul\":3257:3281   */\n      tag_95\n      jump\t// in\n    tag_94:\n        /* \"#utility.yul\":3246:3281   */\n      swap1\n      pop\n        /* \"#utility.yul\":3191:3287   */\n      swap2\n      swap1\n      pop\n      jump\t// out\n        /* \"#utility.yul\":3293:3419   */\n    tag_95:\n        /* \"#utility.yul\":3330:3337   */\n      0x00\n        /* \"#utility.yul\":3370:3412   */\n      0xffffffffffffffffffffffffffffffffffffffff\n        /* \"#utility.yul\":3363:3368   */\n      dup3\n        /* \"#utility.yul\":3359:3413   */\n      and\n        /* \"#utility.yul\":3348:3413   */\n      swap1\n      pop\n        /* \"#utility.yul\":3293:3419   */\n      swap2\n      swap1\n      pop\n      jump\t// out\n        /* \"#utility.yul\":3425:3502   */\n    tag_68:\n        /* \"#utility.yul\":3462:3469   */\n      0x00\n        /* \"#utility.yul\":3491:3496   */\n      dup2\n        /* \"#utility.yul\":3480:3496   */\n      swap1\n      pop\n        /* \"#utility.yul\":3425:3502   */\n      swap2\n      swap1\n      pop\n      jump\t// out\n        /* \"#utility.yul\":3508:3688   */\n    tag_87:\n        /* \"#utility.yul\":3556:3633   */\n      0x4e487b7100000000000000000000000000000000000000000000000000000000\n        /* \"#utility.yul\":3553:3554   */\n      0x00\n        /* \"#utility.yul\":3546:3634   */\n      mstore\n        /* \"#utility.yul\":3653:3657   */\n      0x11\n        /* \"#utility.yul\":3650:3651   */\n      0x04\n        /* \"#utility.yul\":3643:3658   */\n      mstore\n        /* \"#utility.yul\":3677:3681   */\n      0x24\n        /* \"#utility.yul\":3674:3675   */\n      0x00\n        /* \"#utility.yul\":3667:3682   */\n      revert\n        /* \"#utility.yul\":3817:3934   */\n    tag_54:\n        /* \"#utility.yul\":3926:3927   */\n      0x00\n        /* \"#utility.yul\":3923:3924   */\n      dup1\n        /* \"#utility.yul\":3916:3928   */\n      revert\n        /* \"#utility.yul\":3940:4062   */\n    tag_46:\n        /* \"#utility.yul\":4013:4037   */\n      tag_103\n        /* \"#utility.yul\":4031:4036   */\n      dup2\n        /* \"#utility.yul\":4013:4037   */\n      tag_64\n      jump\t// in\n    tag_103:\n        /* \"#utility.yul\":4006:4011   */\n      dup2\n        /* \"#utility.yul\":4003:4038   */\n      eq\n        /* \"#utility.yul\":3993:4056   */\n      tag_104\n      jumpi\n        /* \"#utility.yul\":4052:4053   */\n      0x00\n        /* \"#utility.yul\":4049:4050   */\n      dup1\n        /* \"#utility.yul\":4042:4054   */\n      revert\n        /* \"#utility.yul\":3993:4056   */\n    tag_104:\n        /* \"#utility.yul\":3940:4062   */\n      pop\n      jump\t// out\n        /* \"#utility.yul\":4068:4190   */\n    tag_50:\n        /* \"#utility.yul\":4141:4165   */\n      tag_106\n        /* \"#utility.yul\":4159:4164   */\n      dup2\n        /* \"#utility.yul\":4141:4165   */\n      tag_68\n      jump\t// in\n    tag_106:\n        /* \"#utility.yul\":4134:4139   */\n      dup2\n        /* \"#utility.yul\":4131:4166   */\n      eq\n        /* \"#utility.yul\":4121:4184   */\n      tag_107\n      jumpi\n        /* \"#utility.yul\":4180:4181   */\n      0x00\n        /* \"#utility.yul\":4177:4178   */\n      dup1\n        /* \"#utility.yul\":4170:4182   */\n      revert\n        /* \"#utility.yul\":4121:4184   */\n    tag_107:\n        /* \"#utility.yul\":4068:4190   */\n      pop\n      jump\t// out\n\n    auxdata: 0xa26469706673582212208ac97361488a0aa6cd7e0fa0a021636909878353124743f1e608a215a835f69564736f6c63430008070033\n}\n",
				"bytecode": {
					"linkReferences": {},
					"object": "608060405234801561001057600080fd5b50336000806101000a81548173ffffffffffffffffffffffffffffffffffffffff021916908373ffffffffffffffffffffffffffffffffffffffff160217905550610670806100606000396000f3fe608060405234801561001057600080fd5b50600436106100575760003560e01c8063075461721461005c57806327e235e31461007a57806340c10f19146100aa578063d0679d34146100c6578063f3667517146100e2575b600080fd5b610064610100565b604051610071919061047c565b60405180910390f35b610094600480360381019061008f91906103f1565b610124565b6040516100a191906104ce565b60405180910390f35b6100c460048036038101906100bf919061041e565b61013c565b005b6100e060048036038101906100db919061041e565b6101ee565b005b6100ea61039e565b6040516100f7919061047c565b60405180910390f35b60008054906101000a900473ffffffffffffffffffffffffffffffffffffffff1681565b60016020528060005260406000206000915090505481565b60008054906101000a900473ffffffffffffffffffffffffffffffffffffffff1673ffffffffffffffffffffffffffffffffffffffff163373ffffffffffffffffffffffffffffffffffffffff161461019457600080fd5b80600160008473ffffffffffffffffffffffffffffffffffffffff1673ffffffffffffffffffffffffffffffffffffffff16815260200190815260200160002060008282546101e39190610512565b925050819055505050565b600160003373ffffffffffffffffffffffffffffffffffffffff1673ffffffffffffffffffffffffffffffffffffffff168152602001908152602001600020548111156102b35780600160003373ffffffffffffffffffffffffffffffffffffffff1673ffffffffffffffffffffffffffffffffffffffff168152602001908152602001600020546040517fec0ae9cf0000000000000000000000000000000000000000000000000000000081526004016102aa9291906104e9565b60405180910390fd5b80600160003373ffffffffffffffffffffffffffffffffffffffff1673ffffffffffffffffffffffffffffffffffffffff16815260200190815260200160002060008282546103029190610568565b9250508190555080600160008473ffffffffffffffffffffffffffffffffffffffff1673ffffffffffffffffffffffffffffffffffffffff16815260200190815260200160002060008282546103589190610512565b925050819055507f3990db2d31862302a685e8086b5755072a6e2b5b780af1ee81ece35ee3cd334533838360405161039293929190610497565b60405180910390a15050565b60008060009054906101000a900473ffffffffffffffffffffffffffffffffffffffff16905090565b6000813590506103d68161060c565b92915050565b6000813590506103eb81610623565b92915050565b60006020828403121561040757610406610607565b5b6000610415848285016103c7565b91505092915050565b6000806040838503121561043557610434610607565b5b6000610443858286016103c7565b9250506020610454858286016103dc565b9150509250929050565b6104678161059c565b82525050565b610476816105ce565b82525050565b6000602082019050610491600083018461045e565b92915050565b60006060820190506104ac600083018661045e565b6104b9602083018561045e565b6104c6604083018461046d565b949350505050565b60006020820190506104e3600083018461046d565b92915050565b60006040820190506104fe600083018561046d565b61050b602083018461046d565b9392505050565b600061051d826105ce565b9150610528836105ce565b9250827fffffffffffffffffffffffffffffffffffffffffffffffffffffffffffffffff0382111561055d5761055c6105d8565b5b828201905092915050565b6000610573826105ce565b915061057e836105ce565b925082821015610591576105906105d8565b5b828203905092915050565b60006105a7826105ae565b9050919050565b600073ffffffffffffffffffffffffffffffffffffffff82169050919050565b6000819050919050565b7f4e487b7100000000000000000000000000000000000000000000000000000000600052601160045260246000fd5b600080fd5b6106158161059c565b811461062057600080fd5b50565b61062c816105ce565b811461063757600080fd5b5056fea26469706673582212208ac97361488a0aa6cd7e0fa0a021636909878353124743f1e608a215a835f69564736f6c63430008070033",
					"opcodes": "PUSH1 0x80 PUSH1 0x40 MSTORE CALLVALUE DUP1 ISZERO PUSH2 0x10 JUMPI PUSH1 0x0 DUP1 REVERT JUMPDEST POP CALLER PUSH1 0x0 DUP1 PUSH2 0x100 EXP DUP2 SLOAD DUP2 PUSH20 0xFFFFFFFFFFFFFFFFFFFFFFFFFFFFFFFFFFFFFFFF MUL NOT AND SWAP1 DUP4 PUSH20 0xFFFFFFFFFFFFFFFFFFFFFFFFFFFFFFFFFFFFFFFF AND MUL OR SWAP1 SSTORE POP PUSH2 0x670 DUP1 PUSH2 0x60 PUSH1 0x0 CODECOPY PUSH1 0x0 RETURN INVALID PUSH1 0x80 PUSH1 0x40 MSTORE CALLVALUE DUP1 ISZERO PUSH2 0x10 JUMPI PUSH1 0x0 DUP1 REVERT JUMPDEST POP PUSH1 0x4 CALLDATASIZE LT PUSH2 0x57 JUMPI PUSH1 0x0 CALLDATALOAD PUSH1 0xE0 SHR DUP1 PUSH4 0x7546172 EQ PUSH2 0x5C JUMPI DUP1 PUSH4 0x27E235E3 EQ PUSH2 0x7A JUMPI DUP1 PUSH4 0x40C10F19 EQ PUSH2 0xAA JUMPI DUP1 PUSH4 0xD0679D34 EQ PUSH2 0xC6 JUMPI DUP1 PUSH4 0xF3667517 EQ PUSH2 0xE2 JUMPI JUMPDEST PUSH1 0x0 DUP1 REVERT JUMPDEST PUSH2 0x64 PUSH2 0x100 JUMP JUMPDEST PUSH1 0x40 MLOAD PUSH2 0x71 SWAP2 SWAP1 PUSH2 0x47C JUMP JUMPDEST PUSH1 0x40 MLOAD DUP1 SWAP2 SUB SWAP1 RETURN JUMPDEST PUSH2 0x94 PUSH1 0x4 DUP1 CALLDATASIZE SUB DUP2 ADD SWAP1 PUSH2 0x8F SWAP2 SWAP1 PUSH2 0x3F1 JUMP JUMPDEST PUSH2 0x124 JUMP JUMPDEST PUSH1 0x40 MLOAD PUSH2 0xA1 SWAP2 SWAP1 PUSH2 0x4CE JUMP JUMPDEST PUSH1 0x40 MLOAD DUP1 SWAP2 SUB SWAP1 RETURN JUMPDEST PUSH2 0xC4 PUSH1 0x4 DUP1 CALLDATASIZE SUB DUP2 ADD SWAP1 PUSH2 0xBF SWAP2 SWAP1 PUSH2 0x41E JUMP JUMPDEST PUSH2 0x13C JUMP JUMPDEST STOP JUMPDEST PUSH2 0xE0 PUSH1 0x4 DUP1 CALLDATASIZE SUB DUP2 ADD SWAP1 PUSH2 0xDB SWAP2 SWAP1 PUSH2 0x41E JUMP JUMPDEST PUSH2 0x1EE JUMP JUMPDEST STOP JUMPDEST PUSH2 0xEA PUSH2 0x39E JUMP JUMPDEST PUSH1 0x40 MLOAD PUSH2 0xF7 SWAP2 SWAP1 PUSH2 0x47C JUMP JUMPDEST PUSH1 0x40 MLOAD DUP1 SWAP2 SUB SWAP1 RETURN JUMPDEST PUSH1 0x0 DUP1 SLOAD SWAP1 PUSH2 0x100 EXP SWAP1 DIV PUSH20 0xFFFFFFFFFFFFFFFFFFFFFFFFFFFFFFFFFFFFFFFF AND DUP2 JUMP JUMPDEST PUSH1 0x1 PUSH1 0x20 MSTORE DUP1 PUSH1 0x0 MSTORE PUSH1 0x40 PUSH1 0x0 KECCAK256 PUSH1 0x0 SWAP2 POP SWAP1 POP SLOAD DUP2 JUMP JUMPDEST PUSH1 0x0 DUP1 SLOAD SWAP1 PUSH2 0x100 EXP SWAP1 DIV PUSH20 0xFFFFFFFFFFFFFFFFFFFFFFFFFFFFFFFFFFFFFFFF AND PUSH20 0xFFFFFFFFFFFFFFFFFFFFFFFFFFFFFFFFFFFFFFFF AND CALLER PUSH20 0xFFFFFFFFFFFFFFFFFFFFFFFFFFFFFFFFFFFFFFFF AND EQ PUSH2 0x194 JUMPI PUSH1 0x0 DUP1 REVERT JUMPDEST DUP1 PUSH1 0x1 PUSH1 0x0 DUP5 PUSH20 0xFFFFFFFFFFFFFFFFFFFFFFFFFFFFFFFFFFFFFFFF AND PUSH20 0xFFFFFFFFFFFFFFFFFFFFFFFFFFFFFFFFFFFFFFFF AND DUP2 MSTORE PUSH1 0x20 ADD SWAP1 DUP2 MSTORE PUSH1 0x20 ADD PUSH1 0x0 KECCAK256 PUSH1 0x0 DUP3 DUP3 SLOAD PUSH2 0x1E3 SWAP2 SWAP1 PUSH2 0x512 JUMP JUMPDEST SWAP3 POP POP DUP2 SWAP1 SSTORE POP POP POP JUMP JUMPDEST PUSH1 0x1 PUSH1 0x0 CALLER PUSH20 0xFFFFFFFFFFFFFFFFFFFFFFFFFFFFFFFFFFFFFFFF AND PUSH20 0xFFFFFFFFFFFFFFFFFFFFFFFFFFFFFFFFFFFFFFFF AND DUP2 MSTORE PUSH1 0x20 ADD SWAP1 DUP2 MSTORE PUSH1 0x20 ADD PUSH1 0x0 KECCAK256 SLOAD DUP2 GT ISZERO PUSH2 0x2B3 JUMPI DUP1 PUSH1 0x1 PUSH1 0x0 CALLER PUSH20 0xFFFFFFFFFFFFFFFFFFFFFFFFFFFFFFFFFFFFFFFF AND PUSH20 0xFFFFFFFFFFFFFFFFFFFFFFFFFFFFFFFFFFFFFFFF AND DUP2 MSTORE PUSH1 0x20 ADD SWAP1 DUP2 MSTORE PUSH1 0x20 ADD PUSH1 0x0 KECCAK256 SLOAD PUSH1 0x40 MLOAD PUSH32 0xEC0AE9CF00000000000000000000000000000000000000000000000000000000 DUP2 MSTORE PUSH1 0x4 ADD PUSH2 0x2AA SWAP3 SWAP2 SWAP1 PUSH2 0x4E9 JUMP JUMPDEST PUSH1 0x40 MLOAD DUP1 SWAP2 SUB SWAP1 REVERT JUMPDEST DUP1 PUSH1 0x1 PUSH1 0x0 CALLER PUSH20 0xFFFFFFFFFFFFFFFFFFFFFFFFFFFFFFFFFFFFFFFF AND PUSH20 0xFFFFFFFFFFFFFFFFFFFFFFFFFFFFFFFFFFFFFFFF AND DUP2 MSTORE PUSH1 0x20 ADD SWAP1 DUP2 MSTORE PUSH1 0x20 ADD PUSH1 0x0 KECCAK256 PUSH1 0x0 DUP3 DUP3 SLOAD PUSH2 0x302 SWAP2 SWAP1 PUSH2 0x568 JUMP JUMPDEST SWAP3 POP POP DUP2 SWAP1 SSTORE POP DUP1 PUSH1 0x1 PUSH1 0x0 DUP5 PUSH20 0xFFFFFFFFFFFFFFFFFFFFFFFFFFFFFFFFFFFFFFFF AND PUSH20 0xFFFFFFFFFFFFFFFFFFFFFFFFFFFFFFFFFFFFFFFF AND DUP2 MSTORE PUSH1 0x20 ADD SWAP1 DUP2 MSTORE PUSH1 0x20 ADD PUSH1 0x0 KECCAK256 PUSH1 0x0 DUP3 DUP3 SLOAD PUSH2 0x358 SWAP2 SWAP1 PUSH2 0x512 JUMP JUMPDEST SWAP3 POP POP DUP2 SWAP1 SSTORE POP PUSH32 0x3990DB2D31862302A685E8086B5755072A6E2B5B780AF1EE81ECE35EE3CD3345 CALLER DUP4 DUP4 PUSH1 0x40 MLOAD PUSH2 0x392 SWAP4 SWAP3 SWAP2 SWAP1 PUSH2 0x497 JUMP JUMPDEST PUSH1 0x40 MLOAD DUP1 SWAP2 SUB SWAP1 LOG1 POP POP JUMP JUMPDEST PUSH1 0x0 DUP1 PUSH1 0x0 SWAP1 SLOAD SWAP1 PUSH2 0x100 EXP SWAP1 DIV PUSH20 0xFFFFFFFFFFFFFFFFFFFFFFFFFFFFFFFFFFFFFFFF AND SWAP1 POP SWAP1 JUMP JUMPDEST PUSH1 0x0 DUP2 CALLDATALOAD SWAP1 POP PUSH2 0x3D6 DUP2 PUSH2 0x60C JUMP JUMPDEST SWAP3 SWAP2 POP POP JUMP JUMPDEST PUSH1 0x0 DUP2 CALLDATALOAD SWAP1 POP PUSH2 0x3EB DUP2 PUSH2 0x623 JUMP JUMPDEST SWAP3 SWAP2 POP POP JUMP JUMPDEST PUSH1 0x0 PUSH1 0x20 DUP3 DUP5 SUB SLT ISZERO PUSH2 0x407 JUMPI PUSH2 0x406 PUSH2 0x607 JUMP JUMPDEST JUMPDEST PUSH1 0x0 PUSH2 0x415 DUP5 DUP3 DUP6 ADD PUSH2 0x3C7 JUMP JUMPDEST SWAP2 POP POP SWAP3 SWAP2 POP POP JUMP JUMPDEST PUSH1 0x0 DUP1 PUSH1 0x40 DUP4 DUP6 SUB SLT ISZERO PUSH2 0x435 JUMPI PUSH2 0x434 PUSH2 0x607 JUMP JUMPDEST JUMPDEST PUSH1 0x0 PUSH2 0x443 DUP6 DUP3 DUP7 ADD PUSH2 0x3C7 JUMP JUMPDEST SWAP3 POP POP PUSH1 0x20 PUSH2 0x454 DUP6 DUP3 DUP7 ADD PUSH2 0x3DC JUMP JUMPDEST SWAP2 POP POP SWAP3 POP SWAP3 SWAP1 POP JUMP JUMPDEST PUSH2 0x467 DUP2 PUSH2 0x59C JUMP JUMPDEST DUP3 MSTORE POP POP JUMP JUMPDEST PUSH2 0x476 DUP2 PUSH2 0x5CE JUMP JUMPDEST DUP3 MSTORE POP POP JUMP JUMPDEST PUSH1 0x0 PUSH1 0x20 DUP3 ADD SWAP1 POP PUSH2 0x491 PUSH1 0x0 DUP4 ADD DUP5 PUSH2 0x45E JUMP JUMPDEST SWAP3 SWAP2 POP POP JUMP JUMPDEST PUSH1 0x0 PUSH1 0x60 DUP3 ADD SWAP1 POP PUSH2 0x4AC PUSH1 0x0 DUP4 ADD DUP7 PUSH2 0x45E JUMP JUMPDEST PUSH2 0x4B9 PUSH1 0x20 DUP4 ADD DUP6 PUSH2 0x45E JUMP JUMPDEST PUSH2 0x4C6 PUSH1 0x40 DUP4 ADD DUP5 PUSH2 0x46D JUMP JUMPDEST SWAP5 SWAP4 POP POP POP POP JUMP JUMPDEST PUSH1 0x0 PUSH1 0x20 DUP3 ADD SWAP1 POP PUSH2 0x4E3 PUSH1 0x0 DUP4 ADD DUP5 PUSH2 0x46D JUMP JUMPDEST SWAP3 SWAP2 POP POP JUMP JUMPDEST PUSH1 0x0 PUSH1 0x40 DUP3 ADD SWAP1 POP PUSH2 0x4FE PUSH1 0x0 DUP4 ADD DUP6 PUSH2 0x46D JUMP JUMPDEST PUSH2 0x50B PUSH1 0x20 DUP4 ADD DUP5 PUSH2 0x46D JUMP JUMPDEST SWAP4 SWAP3 POP POP POP JUMP JUMPDEST PUSH1 0x0 PUSH2 0x51D DUP3 PUSH2 0x5CE JUMP JUMPDEST SWAP2 POP PUSH2 0x528 DUP4 PUSH2 0x5CE JUMP JUMPDEST SWAP3 POP DUP3 PUSH32 0xFFFFFFFFFFFFFFFFFFFFFFFFFFFFFFFFFFFFFFFFFFFFFFFFFFFFFFFFFFFFFFFF SUB DUP3 GT ISZERO PUSH2 0x55D JUMPI PUSH2 0x55C PUSH2 0x5D8 JUMP JUMPDEST JUMPDEST DUP3 DUP3 ADD SWAP1 POP SWAP3 SWAP2 POP POP JUMP JUMPDEST PUSH1 0x0 PUSH2 0x573 DUP3 PUSH2 0x5CE JUMP JUMPDEST SWAP2 POP PUSH2 0x57E DUP4 PUSH2 0x5CE JUMP JUMPDEST SWAP3 POP DUP3 DUP3 LT ISZERO PUSH2 0x591 JUMPI PUSH2 0x590 PUSH2 0x5D8 JUMP JUMPDEST JUMPDEST DUP3 DUP3 SUB SWAP1 POP SWAP3 SWAP2 POP POP JUMP JUMPDEST PUSH1 0x0 PUSH2 0x5A7 DUP3 PUSH2 0x5AE JUMP JUMPDEST SWAP1 POP SWAP2 SWAP1 POP JUMP JUMPDEST PUSH1 0x0 PUSH20 0xFFFFFFFFFFFFFFFFFFFFFFFFFFFFFFFFFFFFFFFF DUP3 AND SWAP1 POP SWAP2 SWAP1 POP JUMP JUMPDEST PUSH1 0x0 DUP2 SWAP1 POP SWAP2 SWAP1 POP JUMP JUMPDEST PUSH32 0x4E487B7100000000000000000000000000000000000000000000000000000000 PUSH1 0x0 MSTORE PUSH1 0x11 PUSH1 0x4 MSTORE PUSH1 0x24 PUSH1 0x0 REVERT JUMPDEST PUSH1 0x0 DUP1 REVERT JUMPDEST PUSH2 0x615 DUP2 PUSH2 0x59C JUMP JUMPDEST DUP2 EQ PUSH2 0x620 JUMPI PUSH1 0x0 DUP1 REVERT JUMPDEST POP JUMP JUMPDEST PUSH2 0x62C DUP2 PUSH2 0x5CE JUMP JUMPDEST DUP2 EQ PUSH2 0x637 JUMPI PUSH1 0x0 DUP1 REVERT JUMPDEST POP JUMP INVALID LOG2 PUSH5 0x6970667358 0x22 SLT KECCAK256 DUP11 0xC9 PUSH20 0x61488A0AA6CD7E0FA0A021636909878353124743 CALL 0xE6 ADDMOD LOG2 ISZERO 0xA8 CALLDATALOAD 0xF6 SWAP6 PUSH5 0x736F6C6343 STOP ADDMOD SMOD STOP CALLER "
				},
				"gasEstimates": {
					"creation": {
						"codeDepositCost": "329600",
						"executionCost": "24634",
						"totalCost": "354234"
					},
					"external": {
						"balances(address)": "2814",
						"getMinter()": "2588",
						"mint(address,uint256)": "infinite",
						"minter()": "2489",
						"send(address,uint256)": "infinite"
					}
				},
				"methodIdentifiers": {
					"balances(address)": "27e235e3",
					"getMinter()": "f3667517",
					"mint(address,uint256)": "40c10f19",
					"minter()": "07546172",
					"send(address,uint256)": "d0679d34"
				}
			},
			"storageLayout": {
				"storage": [
					{
						"astId": 3,
						"contract": "contracts/10_Coin.sol:Coin",
						"label": "minter",
						"offset": 0,
						"slot": "0",
						"type": "t_address"
					},
					{
						"astId": 7,
						"contract": "contracts/10_Coin.sol:Coin",
						"label": "balances",
						"offset": 0,
						"slot": "1",
						"type": "t_mapping(t_address,t_uint256)"
					}
				],
				"types": {
					"t_address": {
						"encoding": "inplace",
						"label": "address",
						"numberOfBytes": "20"
					},
					"t_mapping(t_address,t_uint256)": {
						"encoding": "mapping",
						"key": "t_address",
						"label": "mapping(address => uint256)",
						"numberOfBytes": "32",
						"value": "t_uint256"
					},
					"t_uint256": {
						"encoding": "inplace",
						"label": "uint256",
						"numberOfBytes": "32"
					}
				}
			},
			"userdoc": {
				"kind": "user",
				"methods": {},
				"version": 1
			}
		}
	}
}